{
  "contractName": "Adoption",
  "abi": [
    {
      "inputs": [
        {
          "internalType": "uint256",
          "name": "",
          "type": "uint256"
        }
      ],
      "name": "adopters",
      "outputs": [
        {
          "internalType": "address",
          "name": "",
          "type": "address"
        }
      ],
      "stateMutability": "view",
      "type": "function",
      "constant": true
    },
    {
      "inputs": [
        {
          "internalType": "uint256",
          "name": "petId",
          "type": "uint256"
        }
      ],
      "name": "adopt",
      "outputs": [
        {
          "internalType": "uint256",
          "name": "",
          "type": "uint256"
        }
      ],
      "stateMutability": "nonpayable",
      "type": "function"
    },
    {
      "inputs": [],
      "name": "getAdopter",
      "outputs": [
        {
          "internalType": "address[16]",
          "name": "",
          "type": "address[16]"
        }
      ],
      "stateMutability": "view",
      "type": "function",
      "constant": true
    }
  ],
  "bytecode": "0x6080604052348015600e575f5ffd5b5061020a8061001c5f395ff3fe608060405234801561000f575f5ffd5b506004361061003f575f3560e01c806343ae80d314610043578063654486c8146100735780638588b2c514610088575b5f5ffd5b61005661005136600461016f565b6100a9565b6040516001600160a01b0390911681526020015b60405180910390f35b61007b6100c7565b60405161006a9190610186565b61009b61009636600461016f565b61010c565b60405190815260200161006a565b5f81601081106100b7575f80fd5b01546001600160a01b0316905081565b6100cf610150565b60408051610200810191829052905f9060109082845b81546001600160a01b031681526001909101906020018083116100e5575050505050905090565b5f600f82111561011a575f5ffd5b335f836010811061012d5761012d6101c0565b0180546001600160a01b0319166001600160a01b03929092169190911790555090565b6040518061020001604052806010906020820280368337509192915050565b5f6020828403121561017f575f5ffd5b5035919050565b610200810181835f5b60108110156101b75781516001600160a01b031683526020928301929091019060010161018f565b50505092915050565b634e487b7160e01b5f52603260045260245ffdfea2646970667358221220875fb6f5a416baaea7deae5476d8a49f7795500b663c18e54c0afe2fcf74c0d164736f6c63430008220033",
  "immutableReferences": {},
  "source": "pragma solidity ^0.8.0;\n\ncontract Adoption{\n    address [16] public adopters;\n    function adopt(uint petId) public returns (uint){\n        require(petId >= 0 && petId <= 15);\n        adopters[petId] = msg.sender;\n        return petId;\n    }\n    function getAdopter() public view returns (address[16] memory){\n        return adopters;\n    }\n\n}",
  "sourcePath": "/home/ariel/pet-shop-tutorial/contracts/Adoption.sol",
  "compiler": {
    "name": "solc",
    "version": "0.8.34+commit.80d5c536.Emscripten.clang"
  },
  "schemaVersion": "3.4.16",
  "updatedAt": "2026-03-19T13:11:30.145Z",
  "networkType": "ethereum",
  "devdoc": {
    "kind": "dev",
    "methods": {},
    "version": 1
  },
  "userdoc": {
    "kind": "user",
    "methods": {},
    "version": 1
  }
}